:020000040002F8
:10600000000001202976050061760500514B05004E
:1060100065760500614B0500694B05000000000036
:10602000000000000000000000000000A55B05006B
:106030006D760500000000003D5C05004D5C05002C
:1060400073760500352F050073760500737605001D
:106050007376050073760500737605007376050088
:106060007376050073760500C5420500F54105000D
:10607000737605001D99050073760500E938050063
:106080007376050073760500737605007376050058
:106090007376050073760500737605007376050048
:1060A0007376050073760500737605007376050038
:1060B0007376050073760500000000000000000004
:1060C0007376050073760500737605007376050018
:1060D00073760500737605007376050010B5054CE0
:1060E000237833B9044B13B10448AFF30080012384
:1060F000237010BD780D0020000000000429060068
:1061000008B5034B1BB103490348AFF3008008BD3A
:10611000000000007C0D002004290600154B002B18
:1061200008BF134B9D46A3F5803A00218B460F46CE
:106130001348144A121A34F079FD0F4B002B00D08B
:1061400098470E4B002B00D09847002000210400F8
:106150000D000D48002802D00C482FF015FA34F03D
:10616000EFF8200029002FF09DFB2FF00AFA00BF66
:106170000000080000000120000000000158050098
:10618000780D002050800020895505000000000097
:10619000036818470B68036070477047C36810B501
:1061A00004460BB19B689847204610BD38B505469C
:1061B000064B45F8283B044600F0CEFA2846FFF788
:1061C000EDFF204600F000FC204638BDACF3050092
:1061D00010B50446FFF7EAFF204640212FF0A2FA4F
:1061E000204610BD38B50D4610220021044634F07B
:1061F0001DFDEB681BB15B68294620469847EB689C
:10620000E360204638BD0000C36810B52BB90549CE
:10621000054840F23B222EF0D3FDBDE810401B683C
:10622000184700BF50F305006EF30500C36810B5B2
:106230002BB90549054840F23B222EF0C1FDBDE8CF
:1062400010401B68184700BF50F305006EF30500AF
:1062500008B5FFF7A3FF08BDC36810B504460BB12E
:106260009B689847204610BD884238B504460D46C5
:106270000ED0FFF793FF10220021204634F0D6FC09
:10628000EB681BB15B68294620469847EB68E360E2
:10629000204638BD7047000010B5034B036004462C
:1062A00000F0AEF9204610BD7CF3050010B50446A1
:1062B000FFF7F2FF2046FC212FF034FA204610BDF4
:1062C00010B5044600F0D8F8014B2360204610BDFD
:1062D0007CF3050037B50368019104461B689847B5
:1062E0000199204600F0C0F8236805465B68204607
:1062F0009847284603B030BD036837B51B680D4684
:1063000004469847013D15F8011F19B12046FFF7D3
:10631000E1FFF8E72368019120465B6898470199FF
:10632000084603B030BD2DE9F0410368A0B00F4628
:1063300090461B680446984743463A46012101A807
:1063400036F090FD7728054610DC3946424602A813
:1063500036F0ACFD02A92046FFF7CEFF23682046A9
:106360005B689847284620B0BDE8F08101302FF0E7
:10637000C3F939460646424636F098FD3146204676
:10638000FFF7BAFF002EE9D030462FF0CDF9E5E750
:106390000EB403B503AA52F8041B0192FFF7C3FF22
:1063A00002B05DF804EB03B070476FF01500704762
:1063B00003681B69184703689B69184703689B6A51
:1063C000184700290CBF6FF018000020704701200B
:1063D00070476FF0150070476FF0150070477047F9
:1063E0007047416830B4034671B1D0E9032000F032
:1063F000010402B944B1451001EB60000CB14959E8
:106400008A58996830BC104730BC704770B500F1AD
:106410004C0690F9DF2090F9DE100446304631F04A
:10642000F9FED4E939530DB9DA070ED55A1004EB49
:106430006300DB0748BFA35894F8EC1048BF5D59D0
:1064400094F9ED2094F9EE30A847D4F8D8103046EE
:1064500031F08EFF224630460249BDE8704032F0EE
:1064600001B800BF8566020010B54C300C4632F012
:1064700065F8204610BD00002DE9FF479846394BCE
:106480000360394B43600025384BC3600446C0E9C4
:106490000555C0E907550F4616468560858429468F
:1064A00000611022283034F0C1FB2946102204F18B
:1064B000380034F0BBFB04F1B80A2946A4F8485070
:1064C0006C2204F14C0034F0B1FB04F1C8092946F8
:1064D0001022504634F0AAFB29461022484634F0D8
:1064E000A5FB40F20113A4F8DC304FF47F43A4F87D
:1064F000EC30FF2384F8EE3010222946C4E93855E9
:10650000C4E93C55C4F8D88084F8DE7084F8DF60B4
:10651000C4F8E850C4F8F850684634F087FB694680
:106520005046FFF7A1FE6846FFF738FE10222946C5
:10653000684634F07BFB69464846FFF795FE68469F
:10654000FFF72CFEA3685A1013F0010F04EB630051
:1065500018BFA258636818BFD3589847204604B0A4
:10656000BDE8F08794F305000D640200E3630200C8
:106570002DE9FF41036804461B6816460F469847FD
:1065800094F8DC30350103B186B194F8DD300BB1FD
:10659000012E0BD0B83539466019FFF765FE236828
:1065A00020465B68984704B0BDE8F081B8352EF00E
:1065B000F9FC2544FA68EB6804F14C0872B10BB998
:1065C0002EF0FEFE39462846FFF74EFE01223146E8
:1065D000404631F057FF2EF0FBFCE0E70BB12EF008
:1065E00005FF10220021684634F020FB694628464A
:1065F000FFF73AFE6846FFF7D1FD0022E7E700000B
:106600001FB51A4B0360044610220021684634F07F
:106610000DFB002269462046FFF7AAFF6846FFF7F8
:10662000BDFD10220021684634F000FB01226946BE
:106630002046FFF79DFF6846FFF7B0FD04F1C80054
:10664000FFF7ACFD04F1B800FFF7A8FD04F1380036
:10665000FFF702FE04F12800FFF7FEFD206A08B1F3
:106660002EF004F9204604B010BD00BF94F30500DD
:1066700010B50446FFF7C4FF2046FC212FF052F866
:10668000204610BD00EB0110B83008B5C3680BB14F
:10669000FFF7BAFD08BD70B5D0E90813D0E90225AF
:1066A0000446521845EB030300F07EF9636B2BB1EF
:1066B00004F128001B68BDE87040184770BD000059
:1066C00010B5044600F042F9084B23600022002375
:1066D000C4E908230021102204F1280034F0A6FAAE
:1066E000012384F83830204610BD00BFACF305000C
:1066F00038B504460D4600F041F90A4B23600022EC
:106700000023C4E908230021102204F1280034F0FA
:106710008DFA2B6893F8203083F0010384F8383029
:10672000204638BDACF3050070B5044615461E463C
:106730002EF038FC204600F041F9C4E90856A06963
:106740002EF059F8421941EB0603204600F02CF9CF
:10675000BDE870402EF03CBC1FB504462EF022FC74
:10676000204600F02BF9636B23B194F838300BB15D
:106770002EF03CFE102228340021684634F056FAF0
:106780002046FFF70BFD69462046FFF72BFD6846C4
:10679000FFF704FD2EF01CFC04B010BD2DE9F04104
:1067A00004461E460D4617462EF0FCFB636B23B9CC
:1067B00094F838300BB12EF003FE04F12808A845F8
:1067C00006D04046FFF7EAFC29464046FFF70AFD9F
:1067D0003A4633462046FFF7A7FFBDE8F0412EF0CA
:1067E000F7BB000010B5034B03600446FFF7DEFC67
:1067F000204610BDC0F3050010B50446FFF7F2FFB8
:10680000204640212EF08EFF204610BD1FB50446C5
:1068100010220021684634F009FA636B23B15B68EB
:1068200004F1280168469847636B03932046FFF7FD
:1068300093FF039B2BB90749074840F23B222EF0F8
:10684000BFFA1B68684698476846FFF7A7FC04B084
:1068500010BD00BF50F305006EF3050010B50446EF
:106860002EF0A0FB23681BB1237F0BB12EF0BEFDE1
:10687000002323602EF0ACFB204610BD10B504466B
:106880002EF090FB236853B9237F0BB12EF098FDB7
:10689000A0692DF0B0FFC4E9020101232360BDE827
:1068A00010402EF095BB38B504462EF07BFB2368D4
:1068B00063B1A0692DF09FFFD4E90235C41A61EBE2
:1068C00005052EF085FB2046294638BD00242546C7
:1068D000F7E773B505462EF065FB2846D5E9044673
:1068E000FFF7E1FF201846EB0101019000912EF027
:1068F0006FFBDDE9001002B070BD10B504462EF04C
:1069000051FBA0692DF077FF00220023C4E90201AA
:10691000C4E90423BDE810402EF05ABB002310B593
:10692000002203600023C0E90223C0E904230B68AE
:10693000816193F8203083F0010304460377FFF769
:10694000DCFF204610BD03689B681847094B10B553
:10695000002203600023C0E902230023C0E90433BE
:1069600004462DF06FFF0449A0612DF0BBFE2046C8
:1069700010BD00BFD4F305004769020010B50446FE
:10698000074B236000220023C4E9022300230846AA
:10699000A161C4E9043303492DF0A4FE204610BDD3
:1069A000D4F305004769020007B5009000F1080123
:1069B00080692DF0D6FE03B05DF804FB00F10801FC
:1069C00080692DF0FDBE000010B5034B0360044646
:1069D000FFF7F4FF204610BDD4F305000368012241
:1069E0001B6900211847036800221B6911461847DC
:1069F00070B50D4604461646002110224C3034F086
:106A000015F92DB92A462946204600F017F804E06A
:106A10002EB92946204600F049F8204670BD32467E
:106A20002946F1E700F061B910B5044600F051F8CD
:106A300004F14C00FFF710FC204610BD032938B5C7
:106A4000044607D9D31C23F003039A1A8A1A22F0AA
:106A500003011A460023C4E90433E2600D4605BB76
:106A6000C4E906512262256000F0F9F900F0FAF954
:106A7000C4E90A556060258184F8245004F130008F
:106A800000F00CFA00280BDB04F1440000F0FEF9E2
:106A9000002805DB04F1480000F0F8F900EAE07096
:106AA00038BD2369013323616D08D8E737B5054642
:106AB0000846019133F068FC044638B1024601995A
:106AC0002846FFF7BBFF6C6103B030BD4FF0FF30CD
:106AD000FAE770B505680446B5B9A36A1BB1E06A68
:106AE0004FF0FF31984704F1480000F0D1F904F16C
:106AF000440000F0CDF904F1300000F0D7F96069EE
:106B0000BDE8704033F048BCEE6836B9EB6913B1AC
:106B100005F124009847AD68DEE7F36913B106F18B
:106B200024009847F668F0E773B5064627314830E9
:106B3000019021F0030500F0ACF9B469019806F169
:106B4000180384B9F3699D4226D8346A5B1BF3614C
:106B50006219012332622560237100F09CF964B947
:106B6000204602B070BD2268954211D8E26862B139
:106B70001A60A368936000F08EF900234FF0FF3293
:106B8000C4E90532E3612434EAE7A2681A60F2E757
:106B900004F10803A468D4E700F07DF9E0E751F8B8
:106BA000083C73B505460C460BB108469847EB68A0
:106BB0005BB3A4F12406B34227D82B6AB34224D393
:106BC00005F14800019000F064F9AB69019805F106
:106BD0001802ABB11D6854F8241C8D420CD30FD1A0
:106BE00044F8183C13689B6844F81C3C166002B0DB
:106BF000BDE8704000F04FB903F108029B68E8E778
:106C0000002344F8183C1368EEE702B070BDF8B5F5
:106C10004B699B1A002BACBFD318131C4B61437AF2
:106C20004B7100F14407054638460C46164600F005
:106C300030F9284603687BB359696269A1EB020CFD
:106C4000BCF1000F25DB914226D19B68A36013B1F4
:106C500004F108021A612246036842F80C3F002141
:106C600099601A61AB6A046020616BB195F82420C9
:106C700052B12A68A24207D1E2682AB96169E86A7A
:106C8000891B21EAE17198473846BDE8F84000F0D9
:106C900002B903F10800CDE7A36013B104F10802C3
:106CA0001A610023E360DDE7F8B5144605460F4698
:106CB000A2F1240600F0D6F854F8103C44F8047C05
:106CC0000344024644F8103C31462846FFF79FFF34
:106CD000296914F8204C8C40E968761A05F13000D7
:106CE000344300F0E5F82046F8BD2DE9F3470446AB
:106CF0000F4600F0B7F84FF00008054607EB000913
:106D000084F8248004F14406304600F0C2F8637A27
:106D10000133637263685B1B002B2368D8BF656017
:106D2000019301A91BB15A69521B002A31DD23606E
:106D300003B11C613046C1F8008000F0ACF8019B43
:106D400001A853BB019D002D34D100F08BF8002F1A
:106D5000824654DBA9EB0005002D52DCA36A9BB1EF
:106D6000304600F096F8A36A43B1226832B1516907
:106D7000E06AA1EB0A0121EAE1719847012384F856
:106D80002430304600F087F80023237202B0BDE8BB
:106D9000F08703F108019B68C4E79D681A4600214B
:106DA00091601146D268002AFAD1016003F108000F
:106DB0002B46C6E72B6AD5F808A013B105F12400CD
:106DC0009847AA69002A0BDB6B6913446B6100F0DA
:106DD00049F8294602462046FFF719FF5546B2E713
:106DE0002B7922690133DBB213FA02F208BF0123C7
:106DF0002B7105F124012046FFF7D1FEEEE74FF09D
:106E0000FF35304600F045F823683BB15969A1EBE6
:106E10000A0121EAE1718D4228BF0D46304600F09B
:106E20003AF8294604F1300000F045F8237A7BB1A6
:106E3000304600F02EF8237A3BB10023304623720F
:106E400002B0BDE8F04700F026B8304600F023F865
:106E500000F008F8054657E740F8081C70472EF088
:106E600027BA000008B52EF096F848B1064B18680E
:106E70002DF053FD4FF47A72002338F0DBF808BD93
:106E80002EF0A2FCFBE700BF30330020002070474B
:106E900070472EF087B82EF09BB8000008B5024965
:106EA0002EF06EFC002008BDE0F305002EF071BC52
:106EB00001212EF06BBC08B5012341EAE1721946AD
:106EC0002EF079FC431E5842584108BD70470368B4
:106ED0000BB108461847704707B50023024903481D
:106EE00000931A462EF0CAF9E7F305004301188013
:106EF000F0B5466832680446D7680B4607C987B0C4
:106F0000DB68049301AD002385E807000593216841
:106F10002A463046B84707B0F0BD406810B508B9FA
:106F2000FFF7DAFF0368BDE81040DB69184700008F
:106F3000436807B52BB90649064800931A462EF058
:106F40009DF91A68526A184603B05DF804EB1047C1
:106F5000E7F305004301188013B504462EF022F82C
:106F6000237F23B902B0BDE810402EF031B80023D2
:106F700023772EF02DF863682BB906490648009355
:106F80001A462EF07BF91A689268184602B0BDE8DE
:106F900010401047E7F305004301188037B503465A
:106FA0000C4600F1080507C985E807000021E268E2
:106FB0009961197F5A6131B128B1044919B101931E
:106FC00001A92846904703B030BD00BFCD6E020036
:106FD00013B504462DF0E6FF237F1BB12DF0F8FF1B
:106FE00002B010BD012323772DF0F2FFA36804F156
:106FF0000800002BF4D0044B002BF1D063690194FE
:1070000001A99847ECE700BFCD6E020038B50C4AE5
:1070100001600023C0E90333044643608361836059
:107020004261037749B9074D2B6813B900F0F8FEA8
:107030002860236855F823306360204638BD00BFC0
:10704000CF6E0200BC0D002070B560B9104C2668F0
:107050003EB920202EF03CFB31460546FFF7D6FF17
:107060002560206870BD0B4C2378BFF35B8FDB0776
:1070700001D50948F6E720462EF090FA0028F8D00E
:1070800001210548FFF7C2FF20462EF0A9FAF0E7DC
:10709000980D0020940D00209C0D0020704708B52D
:1070A0000846FFF7D1FFBDE80840FFF791BF30B5B4
:1070B0004FF47A7440F271256143B1FBF5F189B266
:1070C00062438380B2FBF5F29DF80C30018092B2EE
:1070D00003294280837106D804230380032A08D839
:1070E0000423438030BDB1F5804FF7D94FF480437E
:1070F000F3E7B2F5804FF5D94FF48043F1E782B062
:107100000346684680E8060003C883E805000022BD
:1071100018461A7202B0704770B5057AC9B20023DA
:107120009D4209D90468E21856788E4205D0E25C87
:1071300001321344DBB2F3E70022104670BD08B5FC
:10714000FFF7EAFF10B100780130C0B208BD73B597
:10715000044602A800E90C00019AFE2A1EDC207AEF
:10716000656883180133AB421ADA2368D5B26E1C06
:107170001E54237A20680133DBB22372C154237A70
:10718000206800990133DBB22372184433F048FCC5
:10719000237A1D442572002002B070BD0420FBE755
:1071A0000120F9E7F7B5064602A800E906001D46EA
:1071B000019C1B781A19FF2A22DC327A7168101997
:1071C00088421FDC3168691A521A591C521A05EBA1
:1071D000010705D0601C18443946284433F0BAFC36
:1071E00022460099384633F01BFC2B7853FA84F37F
:1071F0002B70337A53FA84F43472002003B0F0BD5C
:107200000420FBE70120F9E738B504460846097871
:107210000131CDB22A4650FA81F133F09BFC237A3A
:107220005B1B2372002038BD10B50446FFF774FFC6
:10723000014620B12046BDE81040FFF7E5BF0D2014
:1072400010BDF7B5FE2B6D460E4685E80C00089F75
:10725000044619461DDC3A78013AD2B29A4206D168
:107260000099B81C33F0DCFB002003B0F0BD037ABA
:107270009A1A43680A449A420DDC3946FFF7C4FF64
:1072800095E80C003146204603B0BDE8F040FFF71A
:107290005EBF0420E9E70120E7E77FB502AC84E8A0
:1072A0000C0005460E46FFF737FF40B1009094E80A
:1072B0000C0031462846FFF7C4FF04B070BD94E8C7
:1072C0000C003146284604B0BDE87040FFF73FBFD0
:1072D00082B06B46012A83E8060005DD0CCB4FF037
:1072E000FF3102B0FFF7D9BF042002B070470000A1
:1072F000002A08B5C0E9001205DA074907484FF42B
:107300000E722DF05DFD29B922B10349044840F207
:107310003922F6E708BD00BF0AF4050024F4050091
:107320002FF405007FB5012602AD04468DF8071045
:1073300032460DF107012846FFF7DAFF95E80C0009
:1073400031462046FFF7A9FF04B070BD7FB5054662
:1073500008461646019133F0D3FE02AC024601996D
:107360002046FFF7C5FF94E80C0036B14FF0090145
:107370002846FFF792FF04B070BD4FF00801F7E711
:107380002DE9F04F85B004461E46684600239DF85F
:10739000387080E806000D46904619461A461420BB
:1073A00043450BD000FB03FC15F80CC0BCF1000FEB
:1073B00002D102320133F3E71031FBE7FE2957D83F
:1073C000FE2A55D8002918BF4FF00209114408BF02
:1073D0004FF00009002A18BF0222494401EB0209BC
:1073E00020463146FFF7ABFE394682462046FFF77E
:1073F000A6FE227A636850449B1A03444B4539D356
:1074000031462046FFF710FF39462046FFF70CFFB4
:1074100012354FF0000BC3452ED015F8123C29460B
:10742000B3B9B24602220DF108094846FFF760FFE2
:1074300051462046FFF770FE034670B199E80600FA
:107440002046FFF7AFFE78B90BF1010B1435E2E7E8
:10745000BA46A5F111011022E5E799E80C00514662
:107460002046FFF774FEEEE70C2005B0BDE8F08F74
:107470000420FAE70120F8E70020F6E71FB502AC88
:10748000002B84E8060014BF072306238DF8003084
:1074900094E8060014BF03230223FFF771FF04B032
:1074A00010BD0000002A08B5C0E9001205DA07493E
:1074B00007484FF40E722DF083FC29B922B103491D
:1074C000044840F23922F6E708BD00BF0AF405007F
:1074D00024F405002FF4050013B54B680A7A9A428C
:1074E000044605DD0849094840F2E6222DF068FC13
:1074F00009686846FFF7D6FF009B2360019B636025
:10750000204602B010BD00BF0AF4050049F4050092
:10751000002202608280704700207047704706F0AA
:1075200025BE0000054BDB6F9A0605D5044B1B6892
:107530009B0601D506F05DBC06F0B5BCD03E002030
:10754000E800002037B50B780E2B04460D461CD101
:107550000979EB7803EB012399B242F20F039942C8
:1075600005F106025BD8B1F5005F10D840F6634321
:10757000994200F0998031D840F60143994200F0D9
:107580008B8040F6034399427FD003B030BDA1F514
:107590000053013B0E2BF8D801A252F823F000BF94
:1075A000A1760200B5760200E17602008B7502003A
:1075B000AF7602008B7502008B7502008B7502009E
:1075C0008B7502008B7502008B7502008B750200B3
:1075D0008B7502008B750200D376020041F2010325
:1075E000994245D041F209039942CED159481146FA
:1075F00010F008FD00230093ADF8043023686946BD
:107600005B6920469847002851D000F0D9FB0368F9
:10761000DB6998476A46012103F0BBFAB5E742F2FD
:10762000240399427ED00FD842F21803994200F009
:10763000878042F21C039942A7D110685168464BDB
:1076400003C306F060FCA0E742F22F0399425CD02E
:1076500006D842F22A03994297D1AA793F4B4FE0CC
:1076600042F23B0399420BD842F2390399428CD93A
:107670003A4BD3F89030002B87D01046984784E7D8
:1076800042F24A039942F3D07FE7354B3548002256
:107690001A7006F07DFD78E7334806F0A5FC74E724
:1076A000324806F088FD70E706F037FD6DE706F01A
:1076B00006FC6AE7E979AA79284B02EB0122A3F8D4
:1076C00072202A7A83F8772083F8762006F00FFC60
:1076D0005BE7224BAA7983F8782006F0FCFB54E79D
:1076E000EB79AA7902EB03221C4B5106DA6706D527
:1076F0001F4A1268520602D506F0D5FD45E7002262
:1077000083F88120FFF70EFF3FE7697A2B7AEA7949
:10771000A87903EB012100EB022089B280B206F0C8
:1077200031FB32E70D4BD3F8902012B106F001FD8A
:107730002BE7A3F88220A3F8842006F0B4FB24E70B
:10774000074A1378022B02D801331370F5E710F0C3
:107750008FFD1AE72C3F0020243F0020D03E002060
:10776000C00D002020FB050030FB050028FB0500B4
:10777000E8000020014AC0E90021704770F40500CC
:1077800010B50446406803689B6898472368204604
:10779000DB69BDE810401847036810B504461B6A52
:1077A000984760680368BDE81040DB681847406888
:1077B00010B404682469A4465DF8044B60470000D7
:1077C000F8B5084F05460C465CB1FF2C264628BF8D
:1077D000FF2628463B68F1B2A41B9847A4B2354463
:1077E000F2E7F8BDE400002070470079831E58429C
:1077F00058417047004870470CF705000368DB6983
:10780000184703685B6B1847704703680BB108465D
:1078100018477047034607C983E807007047704759
:10782000034607C983E807007047704770B444688F
:1078300085686610034605EB6400E40748BFAC5951
:107840001B6848BFE35870BC184730B4426884686E
:107850005510034604EB6200D20748BF62591B680B
:1078600030BC48BFD35818477047034608469B684A
:10787000114603B118477047704703460846DB6856
:107880004BB1D1B2022905D0032903D004290CBF82
:107890000321012118477047034608465B691146DA
:1078A00003B118477047704770477047704770477B
:1078B00070477047036A13B11B681430184770474C
:1078C000036913B11B6804301847704710B51821BD
:1078D00004462DF027FF204610BD10B504210446B4
:1078E0002DF020FF204610BD01F046BC07B50191E8
:1078F00001F042FC019900F08CFF002003B05DF81C
:1079000004FB13B50C4601F037FC0146684600F055
:1079100073FF009B2360019B6360002002B010BDD9
:1079200007B5019101F028FC019900F0A7FF0020A4
:1079300003B05DF804FB10B50C4601F01DFC00F02F
:10794000A0FF2080002010BD07B5019101F014FCBC
:10795000019903B05DF804EB00F068BF37B500246F
:107960000D460194ADF8024001F006FC0DF1020253
:1079700001A900F07CFFBDF802302B70204603B057
:1079800030BD37B50D4600240194ADF8024001F03A
:10799000F3FB0DF1020201A900F069FFBDF802201E
:1079A0006B689A4206DC0199286833F039F8204662
:1079B00003B030BD0320FBE7034600789B78272BFC
:1079C00002D0282B03D07047002109F033B809F00A
:1079D00071B800007FB51C4C2378BFF35B8FDA07CA
:1079E00005460ED420462DF0D9FD50B1174E184B48
:1079F000336020462DF0F4FD164A174930462DF02D
:107A0000BEFD164C2378BFF35B8FDB0718D42046EE
:107A10002DF0C4FDA0B102F001FE039003F006FCBE
:107A2000039A0A4B009005F10C010D4803F0C0FFCA
:107A300020462DF0D5FD074A0A4909482DF09FFD43
:107A4000074804B070BD00BF0C0E0020701000206D
:107A500070F60500E0000020E9770200100E00201B
:107A600078100020ADB1020038B5064B0360044623
:107A7000406828B1056914212DF054FE2846F8E726
:107A8000204638BD50F6050010B50446FFF7ECFF60
:107A900020460C212DF046FE204610BD38B5064B81
:107AA00003600446406828B1056914212DF03AFEB0
:107AB0002846F8E7204638BD40F6050010B50446D4
:107AC000FFF7ECFF20460C212DF02CFE204610BDC8
:107AD00038B5064B03600446406828B10569142197
:107AE0002DF020FE2846F8E7204638BD60F6050058
:107AF00010B50446FFF7ECFF20460C212DF012FED6
:107B0000204610BD38B5064B03600446406828B1D6
:107B1000056914212DF006FE2846F8E7204638BDF9
:107B2000A8F6050010B504462830FFF7EBFF04F176
:107B30001C00FFF7CDFF04F11000FFF7AFFF201D81
:107B4000FFF792FF204610BD10B50446FFF7DAFF9D
:107B500020460C212DF0E6FD204610BD38B5064B21
:107B600003600446406828B1056914212DF0DAFD50
:107B70002846F8E7204638BDF0F5050010B5044664
:107B8000406B10B103685B6898472046FFF7E6FF3B
:107B9000204610BD10B50446FFF7E0FF20460C213B
:107BA0002DF0C0FD204610BD37B50D4604460192AC
:107BB0002BF00AF9019B2A46214603B0BDE830406C
:107BC000FFF7F5BD10B52BF0FFF80368BDE81040D6
:107BD000DB68184707B501902BF0F6F803680199A8
:107BE0001B6903B05DF804EB1847000070B54E4BFD
:107BF000196888B029B94D494D484FF4B9722DF034
:107C0000DFF80B684B4E9B684B4D04A89847049BCC
:107C1000059C06999DF81C0033602C600FF0D8FF7E
:107C200083B223B9414945484FF4C072E7E733684E
:107C300082B213FA80F02B6830609B1A94422B605A
:107C400006D900233E493F480093A21A2DF00EFBAF
:107C500010F06AF907F0E2FF07F0F2FF07F04CFEC0
:107C600007F02AFF07F07AFF374810F059FB0DF0B4
:107C700081F9364810F054FB03900BF08FFB0CF0A9
:107C800017FE0BF029FE0BF0D9FF0CF0AFF80CF04B
:107C9000FDFE0CF04DFA0CF05FFF0CF07FFB03983B
:107CA0000CF0C4F92A4810F03BFB0DF05BFB0DF023
:107CB000E7F90DF001FB0DF03FFA264810F030FB1C
:107CC00008F0C8F809F068F909F034F8224809F01A
:107CD00079F90AF015F908F047FB08F021FE1F4872
:107CE00010F01EFB0EF008FA0FF05EFF0FF052FFCF
:107CF0000FF0BAFB0FF0AEFB194810F011FB194B57
:107D00001870462005F0A2FE17480CF05DF91649E0
:107D100003200BF0F5FD154808F0E0F8144808B012
:107D2000BDE8704008F0C0B8140E002094F40500BF
:107D3000DEF40500F00D0020EC0D0020F2F405004B
:107D400002F5050005011880894F03004540030036
:107D5000755303008DFE02003F8502005D61030044
:107D6000257E0200381200208D7E0200B9790200C3
:107D7000E5D2020038B50F4A0F4B03600023C0E97B
:107D80000323C0E905330371836004460D462CF0DC
:107D9000E7FA014604F12000FEF7C0FD00220023AF
:107DA000C4E91023054B20461D60FFF71FFF204646
:107DB00038BD00BF9CF60500D0F60500140E00206B
:107DC00010B50D4C2378BFF35B8FDB0711D4204631
:107DD0002DF0E4FB68B12AF0F7FF01460748FFF7F2
:107DE000C9FF20462DF0FCFB054A064903482DF04B
:107DF000C6FB024810BD00BF000E0020080F002087
:107E0000E0000020497F020008B5FFF7D9FFBDE878
:107E100008400021FFF743B908B5FFF7F5FF08BD9B
:107E2000FFF7CEBF13B50C4641B303F0FFF9204670
:107E300004F07EFC10BBA278202A21D1CDE90000FD
:107E4000FFF702F9009006F065FDC30407D50BF0BB
:107E500033F90CF043FC0BF0B1FE0BF093FFFFF78E
:107E6000AFFF03685B6A984700F05EFEFFF7A8FF6C
:107E70000223037104486946C368984702B010BDE5
:107E8000204604F0B9FFF9E7180E002010B543882A
:107E9000412B04460AD102F0C1FB006870B163892E
:107EA000E2882188BDE8104002F0CABDFFF788FFD4
:107EB00021460020BDE81040FFF7B4BF10BD000010
:107EC00008B5044B1868FFF75BFCBDE808400CF0F0
:107ED00011B800BF140E0020F7B50479012C054637
:107EE0000F46164619D0022C19D0D4B92030019073
:107EF000FEF703FD0198FEF7C1FC96E807000A4B68
:107F0000C5E9045783E80700F2682846C3E903245B
:107F1000FFF7D6FF204603B0F0BD0924FAE700249E
:107F2000F8E70B24F6E700BF180E002038B504462A
:107F3000206838B10569FEF731F920680FF0D6FEE8
:107F40002560F5E738BD000010B5084B044640F841
:107F5000203BFEF783FC064BE36004F11800FFF7BB
:107F6000E5FF2046FFF79AF8204610BDD0F6050041
:107F70009CF6050010B50446FFF7E6FF20464821B1
:107F80002DF0D0FB204610BD38B50379022B0446F6
:107F90001DD1104B002505711868FFF7FDFB236804
:107FA00020465B6A984701F093F923682046DB6A14
:107FB000984701F01DFD23682046DB69984704F0CF
:107FC00003F904F11800FFF7B1FF284638BD092076
:107FD000FCE700BF140E002010B5034B03600446FD
:107FE000FEF7E4F8204610BDC8F5050010B50446BC
:107FF000FFF7F2FF204640212DF094FB204610BDF4
:1080000010B5034B03600446FFF7E6FF204610BDA2
:10801000DCF5050010B50446FFF7F2FF20464021CD
:108020002DF080FB204610BD30B5044687B0406877
:108030000191F0B114200FF037FE0199054620B9E7
:10804000104911484E222CF0BBFE02A8FEF7CAF8D8
:1080500002A92846FEF7C6F800232B6102A8FEF706
:108060009DF8E3683BB9E560D4E90101FFF717F833
:10807000012007B030BD1A461B69002BFBD11561EA
:10808000F2E700BF65F50500ADF5050008B528303D
:10809000FEF7BAF808BD000070B5044686B0A069C6
:1080A00050B10569FEF7B0F8A069FEF777F8A0694E
:1080B0000FF01CFEA561F2E704F120052846FEF74B
:1080C00008FCD4E91032181842EB0101C4E9100190
:1080D0002846FEF712FCD4E910014FF47A7200230F
:1080E00036F0A8FF05460E4670B10FF043FF4FF47F
:1080F0007A73A5FB030103FB0611D4E910321B1AA6
:1081000062EB0102C4E91032234D10F01FF92B7805
:10811000BFF35B8FDB0714D428462DF03FFA80B104
:108120002CF01EF91D4C01462046FEF7E1FA1C4BCF
:10813000236028462DF054FA1A4A1B4920462DF098
:108140001EFA01A82CF09AFB10F0F6F8B8B10DF168
:1081500007000FF02BFF9DF80730ABB1134A0292D6
:10816000134A05924FF47A720023424302A90B4846
:10817000CDE90333FEF712FB02A8FEF70FF801A8C2
:108180002CF084FB06B070BD2CF088FB094B1868FE
:1081900003689B699847F2E7FC0D0020C80E002099
:1081A000DCF50500E000002001800200197E0200DD
:1081B00044F30500140E0020FFF76EBF70B51D4E8E
:1081C0003378BFF35B8FDB0786B0044611D43046AB
:1081D0002DF0E4F968B1184D2846FEF771FA174BF7
:1081E0002B6030462DF0FCF9154A164928462DF033
:1081F000C6F92046FFF750FF10F09EF8B8B10DF118
:1082000007000FF0D3FE9DF8073083B10E4A0292AB
:108210000E4A05924FF47A720023424302A906489F
:10822000CDE90333FEF7BAFA02A8FDF7B7FF06B0AF
:1082300070BD00BFF40D0020300E0020C0F305001B
:10824000E0000020E5670200197E020044F305000B
:1082500010B510220446002132F0E8FC204610BD83
:1082600070B5044631480578BFF35B8F15F0010502
:108270005AD12DF093F9002856D002F0D7FF236889
:108280000646DB6920469847294C2A4BA662C4E97A
:108290000035294BC4E9043504F11003E360274B92
:1082A000B830C4E90C35E062C4E90655C4E90855A4
:1082B00004F13800FFF72CF904F13E00FFF728F92C
:1082C00004F14400FFF7C4FF04F15400FFF7C0FFBE
:1082D00004F16400FFF7BCFF04F17400FFF718F924
:1082E00004F17A00FFF7B4FF0F2384F88B304FF4CA
:1082F000807384F88A50A4F88C3084F88E5004F18E
:1083000090067019143502F07BF8642DF9D1A36A38
:1083100006481C60012384F864302DF061F9084A96
:10832000084903482DF02BF9014870BD080E0020C4
:10833000780F0020F0F5050000F605006C10002015
:10834000E00000207D7B0200C36810B504460BB13D
:108350009B689847204610BDC36810B504460BB112
:108360009B689847204610BD10B504461430FFF7AF
:10837000F3FF201DFFF7E8FF204610BD10B50446AF
:108380001030FFF7E9FF2046FFF7DEFF204610BD63
:108390002DE9FF410D4600210446102240F8041B40
:1083A00032F044FC1022002104F1140032F03EFCB3
:1083B0001F4B009300211F4B656228460393CDE9B4
:1083C0000114FFF7C1FF10220021284632F02EFCD5
:1083D000039B6E461BB15B68314628469847039B5A
:1083E000EB603046FFF7B0FF676A134B009307F16D
:1083F0001005124B03934FF00008B542CDE90184FC
:108400000FD02846FFF7A8FF10224146284632F039
:108410000DFC039B1BB15B68314628469847039BC4
:10842000FB613046FFF798FF204604B0BDE8F081BD
:10843000C1780200BCF60500B5780200B0F6050070
:1084400070B51B480378BFF35B8FDB072DD42DF08D
:10845000A5F850B3174E3478BFF35B8F14F00104C6
:1084600017D130462DF09AF898B1134D10222146BD
:10847000284632F0DBFB10222146A81832F0D6FB4A
:1084800030462C622DF0ACF80C4A0D4928462DF0F0
:1084900076F809490B48FFF77BFF05482DF0A0F857
:1084A000064A094907482DF06AF8064870BD00BF22
:1084B000040E0020C40D0020C80D0020E0000020A4
:1084C0007D830200500F00206983020038B50E4CF6
:1084D0002378BFF35B8FDB07054612D420462DF0CF
:1084E0005DF870B12846FFF7ABFF0146074803F07F
:1084F000F3F920462DF074F8054A064903482DF09B
:108500003EF8024838BD00BFF80D0020700E002074
:10851000E0000020257B0200044B0022C3E9012279
:108520001A611A60024ADA60704700BF180E002014
:108530000B78020003680BB10846184770471FB557
:108540000190FFF73DFC03681B6B984700230199DE
:108550008DF80C3003AA01F09BFF38B99DF80C3060
:10856000042B18BF052005B05DF804FB0520FAE7D1
:1085700038B5064B03600446406828B105691421EC
:108580002DF0D0F82846F8E7204638BD24F705003E
:1085900010B50446FFF7ECFF20460C212DF0C2F881
:1085A000204610BD38B5064B03600446406828B12C
:1085B000056914212DF0B6F82846F8E7204638BDA5
:1085C00034F7050010B50446FFF7ECFF20460C21F8
:1085D0002DF0A8F8204610BD10B504462C30FFF74A
:1085E000E1FF04F12000FFF73FFA04F11400FFF768
:1085F00055FA04F10800FFF7BBFF204610BD034603
:10860000002210B503F8012B00F1110403F8012B2F
:108610009C42FBD1418210BD08B503783BB90A7872
:108620009AB9408A4B8AC31A5842584108BD012B57
:108630000BD10B78012B08D110220131013032F01F
:10864000BFF9B0FA80F04009F0E70020EEE7000043
:10865000C06A044B002818BF1846003818BF012014
:10866000704700BFCD6E0200006C044B002818BF9D
:108670001846003818BF0120704700BFCD6E0200B9
:108680002DE9F043804687B00026012498F8143085
:10869000B34230DDF2B293428ABFD8F818300027D7
:1086A00053F82670023497F82830A4B21C4497F887
:1086B000203013F0300FA4B206D0002597F82830F0
:1086C000AB4203D80134A4B20136DFE7EAB29342E9
:1086D00086BF7B6A53F825904FF0000942F60211DD
:1086E00001A8FFF78CFF01A94846FFF795FF002876
:1086F000EAD10135E2E7204607B0BDE8F08338B59E
:108700004B6991F820500C4673B90B8B63B9022D5D
:1087100003D10846FFF79CFF90B115F04C0F03D032
:108720002046FFF7A1FF58B1402D0AD1E07FC0F3EA
:108730000110033000F0030001288CBF002001204D
:1087400038BD0120FCE70000F0B590F84031132B54
:108750004BD8274DB0F8A03291F820602C46013359
:1087600014F8127BA0F8A03201351368002F18BF4F
:108770002C461C6090F84041783400EB44045C6067
:1087800003F10C049C601B4CDC6090F84031B0F8A5
:10879000A052062404FB0304A4F8785016F0100538
:1087A00018BF0125A4F87A50B40608D5062404FBA6
:1087B0000304B4F87A5045F00205A4F87A5091F811
:1087C0005450062404FB0304C5F3010584F87C50CF
:1087D0008C8B03F18C01013320F8114080F840317B
:1087E0001368103313600020F0BD0720FCE700BFC2
:1087F0004012002002002011B1F831220280B1F8AD
:1088000033224280B1F835228280B1F83722C2800B
:1088100070470B88A0F831324B88A0F833328B8830
:10882000A0F83532CB88A0F837327047F8B5D0F8C9
:10883000D07105460E4621B1084632F061FC04466F
:1088400038B9384631F0A8FD0024A5F822420020AE
:10885000F8BD0146384632F039FA30B1C5F8D001DA
:108860002246314632F0DCF8EFE70720F0E7B0F8B7
:1088700022321380D0F8D0310B607047A0F82A1252
:108880007047B0F82A027047B0F8A0220346F3B44C
:108890000021C0F89811501CA3F8A8014748C3F85C
:1088A000A0014748C3F8A40103F5D670C3F89C01A2
:1088B0004448C3F8AC014448444DC3F8B00103F543
:1088C000DC70C3F8B401571DD01CA3F81D02A3F837
:1088D000257228883E4FA3F81F0203F50770B7F8EA
:1088E00000C0C3F8C001C3F8CC5103F5E47003F233
:1088F0002225C3E97415C3F8C401A3F827C235487B
:10890000354D364C364EC3F8D85103F5097C022557
:10891000C3F8E0C103F5F47CC3E979C0C3F8B861DA
:10892000C3F8BC41C3F8C801A3F82212C3F8DC4164
:10893000A3F82A1283F8245203F5FC71C3F8EC71F2
:10894000C3F8F861274EC3F8F41103F22A21C3F8E3
:10895000F0113188A3F82F1203F50B71C3F8001240
:1089600003F50271C3E981101F49C3F8FC4108688F
:10897000496883F82C526C4603C46C4603CC03F25E
:108980003127C3F8351203F50671C3E98471073244
:108990001649C3F8310292B203F5CC70A3F8A022B5
:1089A000A3F82D22C3F80C62C3F8181283F81C52E6
:1089B000A3F8AA2102B0F0BC08F00ABB039402009D
:1089C000F5920200ACFC0500A4FC0500A2FC050029
:1089D0009CFC050005000001F80008019EFC050054
:1089E00002000001AAFC05003CF705000800000198
:1089F000B0F8A012394A4B1C70B5A0F84C32384B75
:108A0000C0F84432374BC0F8483200F51473C0F850
:108A10004032354BC0F85032344BC0F8543200F578
:108A20001773C0F85832324BC0F85C32CB1C044686
:108A300000259BB2C0F83C52A0F8A032A0F89132B9
:108A40001088A4F893022B48C4F8600204F524703F
:108A5000C4F8640204F51B70C4F868022648C4F820
:108A60007C52C4E99B0204F51F72C4E99D52234A5B
:108A7000C4F8802294F8402102F1780004EB400011
:108A8000C4F8840204F52370C4F888021C48C4F8B2
:108A90008C02202084F89002062000FB024002266F
:108AA000A0F87830A0F87A6080F87C5002F18C0051
:108AB0003144013224F8101084F8402104F50F707D
:108AC000A4F84E3208F084FA94F840010D4A04F1FB
:108AD0007801BDE8704007F09FBF00BFAEFC050005
:108AE00003940200F5920200ACFC0500A8FC05000E
:108AF000020000019EFC050005000001A0FC05002D
:108B0000020020110D95020090F8A23210B5044623
:108B10004BB9012380F8A232FFF7B6FE2046BDE82C
:108B20001040FFF765BF10BD10B50446034808F0BC
:108B300049FA2046BDE81040FFF7E6BF3F85020036
:108B400010B5044601F1080031F01EFC28B1D4F83C
:108B50009C320360C4F89C02043010BD70B5154609
:108B6000B0F8A0222E68124B0132A0F8A022336088
:108B70000B78012B0C460CBF10210221B181FFF7AD
:108B8000DFFF2B6822787060586872B904F1120117
:108B90009A8931F045FF2B6803F10C029A604FF47B
:108BA0008072DA8110332B6070BD611CF0E700BF6A
:108BB000ACFC0500F8B5B0F8A032176802339BB2E0
:108BC000A0F8A0328B83164B3B600B78002B3B4602
:108BD0000C4614BF1321052123F80C1FBB6015465A
:108BE0000646FFF7ADFF2B6878604FF48072DA819C
:108BF000586894F820200270B6F8A022A0F801204E
:108C00002378033043B904F11201022231F008FF46
:108C10002B6810332B60F8BD611C1022F6E700BFF3
:108C20009EFC05002DE9F0431E46B0F8A03291F8F5
:108C30002070D6F8009001339BB2A0F8A032938345
:108C4000137887B0054688461446002B40F0A6806E
:108C500002F11203218BC9F80030A9F80C10284644
:108C60000231FFF76DFF3368C9F808009868628B1E
:108C700020F8022B5860616931F0D2FE33689A689F
:108C800010889A895B68121A0021184431F0CEFFCF
:108C90003268002393732178012908BF0B46937330
:108CA00042F6021101A8FFF7AAFC01A92046FFF72E
:108CB000B3FC80B395F84031132B7BD8E37FD80702
:108CC0007AD513F0060F77D10E9B32680121197007
:108CD000937B43F02003937395F84031B5F8A002DD
:108CE000062202FB0352A2F8780017F0100008BF1A
:108CF0000146A2F87A100846B90644BF40F00201C6
:108D0000A2F87A1003F18C02B8F81C1025F81210A2
:108D1000013385F84031A37F31681BB18B7B43F071
:108D200008038B730023CB73E37FDA0714D5012389
:108D3000CB73E37FC3F34103022B31D0032B31D03C
:108D4000012B01D10923CB73BB0705D58B7B9D0676
:108D50005CBF43F004038B73E37F180718D5CA7B0D
:108D600042F01003CB73E37FC3F30113022B1BD03C
:108D7000032B1CD0012B02D162F06F02CA7317F0D3
:108D80004C0F05D08B7B9A065CBF43F002038B73BC
:108D900010313160002007B0BDE8F083531C59E763
:108DA0000B23D0E70F23CEE762F04F02E6E762F035
:108DB0000F02E3E70720EEE70420ECE72DE9F0419E
:108DC0000B7891F82070D2F8008006460C461546C4
:108DD000002B73D101F11203218BC8F80030A8F8E1
:108DE0000C1030460231FFF7ABFE2B68C8F80800C4
:108DF0009868628B20F8022B5860616931F010FE90
:108E00002B689A6810889A895B680021121A1844A6
:108E100031F00CFF2B6817F002021ABF042199737E
:108E20009A7317F04C001EBF997B41F002019973B1
:108E30002178012902BF997B41F001019973A17F3B
:108E400019B1997B41F008019973790642BF997B6A
:108E500041F0400199739ABBDA7378B1D97B41F044
:108E60001002DA73E27FC2F30112022A39D0032A18
:108E70003AD0012A02D161F06F01D973DB7B07F090
:108E8000300703F044033B4307D12046FFF7E0FBE4
:108E900018B92046FFF7E8FB50B196F89431132B30
:108EA00025D806EB83020133C2F8444186F8943199
:108EB0002B6810332B600020BDE8F0814B1C8BE742
:108EC0000122DA73E27FC2F34102022A05D0032AAB
:108ED00005D0012AC1D10922BEE70B22BCE70F222F
:108EE000BAE761F04F01C8E761F00F01C5E707205D
:108EF000E2E72DE9FF4706460D461746FFF7FFFB61
:108F000000283BD03A462946304695F82090FFF796
:108F100051FE3A4629463046FFF750FF044638BB1B
:108F20008DF80F0080460DF10F0A95F82830434563
:108F300012D95FFA88F293428ABF6B6A002253F813
:108F40002820CDF800A03B4629463046FFF76AFEB0
:108F500068B908F10108E8E719F030090CD09DF86C
:108F60000F302BB93A4629463046FFF7EDFB044651
:108F7000204604B0BDE8F0874C46F9E70424F7E743
:108F80002DE9F34188460546FFF7BEFD18202CF079
:108F90009FFB294B83600026284BC3600446066074
:108FA0004046FFF76DFB01012846FFF7C9FD6060F1
:108FB00030B91CB1182120462CF0B4FB012721E068
:108FC000019001AA41462846FFF7C8FDB5F8A03236
:108FD0002382A8F81C3098F81430B34218DDF2B29E
:108FE0009A4236BFD8F81830002153F8261001AA4B
:108FF0002846FFF77EFF074640B11CB118212046E6
:109000002CF090FB384602B0BDE8F0810136E2E773
:10901000B5F8A03263822046D5F89832C5F8984258
:10902000636107F0D5FF064A95F8400105F1780124
:1090300007F0F2FC0027E5E703940200F592020036
:109040000D950200FFF79CBF30B590F8944100F5F4
:10905000A2730022944206D953F8040B858B8D42EB
:1090600002D00132F6E7002030BD10B503460C46B1
:1090700007C983E80700E268DA6000221A6118462F
:1090800010BD00000022C0E901220261014A016016
:10909000C26070473585020038B5104B0025C0E925
:1090A00002350F4B0560C0E905350E4B8580C0E9E0
:1090B00008350D4B0446C0E90B3529463830FFF71B
:1090C000E1FF294604F14C00FFF7DCFF294604F1DB
:1090D0006000FFF7D7FF204638BD00BF24F705002A
:1090E00040F6050050F6050034F7050038B5044693
:1090F000FFF7D2FF0022626704F17E0304F1F6015C
:1091000023F8062C23F8042C03F8022C06338B4298
:10911000F6D104F1F00204F58C73002122F8021B51
:109120009342FBD104F5A072002123F8021B9A425E
:10913000FBD14FF0000384F8403104F5CA7204F506
:10914000A273002543F8045B9A42FBD184F8945142
:10915000A422002104F5CC7031F068FD5C220021CE
:1091600004F50F7031F062FDC4E9A655A4F8A052D1
:1091700084F8A252204638BD10B50B4C2378BFF3BB
:109180005B8FDB070ED420462CF008FA50B107485D
:10919000FFF7ACFF20462CF023FA054A05490348A7
:1091A0002CF0EDF9014810BD3C12002054120020B3
:1091B000E0000020D985020070B5044686B0236B1C
:1091C0006363606B38B1C36821469847636B002BBB
:1091D000F5D01B69F4E7206B28B1056914212CF048
:1091E000A1FA2846F8E72063A080E06828B1056965
:1091F00014212CF097FA2846F8E7E060A06928B11E
:10920000056914212CF08EFA2846F8E7656AA061FA
:1092100035B12E69284614212CF084FA3546F7E73B
:109220002946656201A8FFF72DFF01A904F1380066
:10923000FFF71BFF294601A8FFF724FF01A904F14E
:109240004C00FFF712FF294601A8FFF71BFF01A9F9
:1092500004F16000FFF709FF284606B070BD00006A
:1092600038B50446FFF7A8FFD4F8985255B16B699A
:10927000288AC4F8983207F0C7FE182128462CF037
:1092800051FAF1E7D4F89C5235B12B68C4F89C32FE
:10929000284631F081F8F5E7B4F8A80107F0B4FEEC
:1092A000B4F84C0207F0B0FED4F8D00131F074F8F5
:1092B0002846064AA4F8A05284F8405184F89451F4
:1092C00004F1780107F0A8FB284638BD0D9502008F
:1092D000FFF7C6BF38B504460D466368A360A068B3
:1092E00038B1C36829469847A368002BF5D01B699D
:1092F000F4E738BD2DE9F04F87B00E46BDF840A029
:10930000DDF844900746144651464A463046984692
:1093100007F096FE054688BB182C48D032D8122C90
:1093200047D0162C14BF00240424FFF725FF314634
:10933000FFF78AFE8346002841D0FFF795F9002801
:109340003DD000235846039305930197ADF808607C
:10935000ADF80A80ADF80CA0CDF81090FFF784F9B5
:1093600068B30023ADF8143001A9DBF84C300BF1E1
:1093700040009847BDF814300BB3DDB2284607B063
:10938000BDE8F08F522C16D0D22C16D1FFF7F4FE88
:10939000436F53B1FFF7F0FE446F384608F0D8FD35
:1093A00039460246204600F0CBFD0324BDE70624E3
:1093B000BBE70124B9E70224B7E70446B5E7019704
:1093C000ADF808608DF80A40ADF80C80ADF80EA03D
:1093D000CDF81090FFF7D0FE01A91430FFF77AFF07
:1093E000CCE738B504460D466368A360A06838B181
:1093F000C36829469847A368002BF5D01B69F4E79A
:1094000038BD2DE9F04387B00D461F460E9E8046BD
:10941000FFF7B2FE2946FFF717FE044630B3FFF709
:1094200017F918B34FF000092046CDE90399CDF89C
:109430001490CDF80480ADF80850ADF80A70FFF72D
:1094400007F968B104F12C00A36BADF8149001A9E1
:109450009847BDF8140018B1C0B207B0BDE8F0835A
:10946000049B7360B368BDF80C201A800024CDE91A
:109470000344B3680594ADF80850ADF80A701B8832
:10948000ADF80C3073680493CDF80480FFF774FED8
:1094900001A92030FFF7A5FF2046DEE7C368184783
:1094A00038B504460D466368A360A06838B1C36848
:1094B00029469847A368002BF5D01B69F4E738BD0F
:1094C00008B5034608461146421E042A0CD8DFE8B8
:1094D00002F0140B030C100003F138009B6B1BB15E
:1094E000094B0BB1FFF7DAFF08BD03F14C00DB6C51
:1094F000F5E703F160001B6EF1E7012103F10800BD
:10950000FFF7CEFFF0E700BFCD6E020013B5C388B2
:10951000044613F0030F14BF032104210191FFF748
:109520002BFEA2880199FFF7CBFF02B010BD10B54A
:109530004388122B04460AD1FFF71EFE006870B163
:109540000368E28921881B68BDE8104018470F2B8B
:1095500005D1FFF711FE01210830FFF7A1FF10BD73
:1095600008B542F602110248FFF749F808BD00BFEE
:10957000401200200020704770477047012070475C
:1095800070B501F10804064605460FCC0FC52368E7
:109590002B60304670BD704770477047704770470A
:1095A0007047704770477047704770477047704703
:1095B00003680BB108461847704703680BB10846AB
:1095C0001847704703680BB10846184770470346B1
:1095D00007C983E8070070477047034607C983E857
:1095E000070070477047034607C983E807007047C4
:1095F0007047034607C983E8070070477047034672
:1096000007C983E8070070477047034607C983E826
:10961000070070477047034607C983E80700704793
:10962000704770B4446885686610034605EB6400B3
:10963000E40748BFAC591B6848BFE35870BC1847E3
:1096400030B4426884685510034604EB6200D207C8
:1096500048BF62591B6830BC48BFD358184770B424
:10966000446885686610034605EB6400E40748BF5C
:10967000AC591B6848BFE35870BC184770B44468C5
:1096800085686610034605EB6400E40748BFAC59E3
:109690001B6848BFE35870BC184770B444688568BD
:1096A0006610034605EB6400E40748BFAC591B682D
:1096B00048BFE35870BC184730B4426884685510FE
:1096C000034604EB6200D20748BF62591B6830BCF6
:1096D00048BFD358184710B44268816854100346F5
:1096E00001EB6200D20748BF0A591B685DF8044BC2
:1096F00048BFD358184710B51C2104462CF012F867
:10970000204610BD10B5202104462CF00BF8204651
:1097100010BD37B50446057A0BF0CEF90022CDE92D
:109720000022034604F10F0204F1090128460AF061
:109730003DFE03B030BD70B5421E00234D1E9D425C
:109740000CD912F8016F741EE4B2FD2C18D91BB1AC
:1097500012F8014CB44213D10133F0E7435D03F03A
:109760003F033F2B06D1014411F8020CFF3818BF0C
:10977000012070BD23B9084410F8020C0038F6E748
:109780000120F6E7437903F0C003402B03D1032106
:109790000844FFF7D0BF00207047037819B143F0A9
:1097A00004030370704703F0FB03FAE738B5064B78
:1097B00003600446406828B1056914212BF0B2FF0C
:1097C0002846F8E7204638BDB0F9050010B5044634
:1097D000FFF7ECFF20460C212BF0A4FF204610BD24
:1097E00038B5064B03600446406828B1056914216A
:1097F0002BF098FF2846F8E7204638BDC0F9050051
:1098000010B50446FFF7ECFF20460C212BF08AFF31
:10981000204610BD38B5064B03600446406828B1A9
:10982000056914212BF07EFF2846F8E7204638BD55
:10983000D0F9050010B50446FFF7ECFF20460C21D7
:109840002BF070FF204610BD38B5064B0360044670
:10985000406828B1056914212BF064FF2846F8E719
:10986000204638BDE0F9050010B50446FFF7ECFFCF
:1098700020460C212BF056FF204610BD002202602E
:1098800082800A6802608A888280704710B51F2231
:109890000446002131F0CAF90023E37710BD0378B4
:1098A000032B12D1426883686FF07F418A4228BF40
:1098B0000A46A02A38BFA0228B4228BF0B46A02B05
:1098C00038BFA023426083607047012B9EBF437E58
:1098D00043F020034376704738B51F2A28BF1F2264
:1098E0000546144631F09CF8C4F11F0200212819E6
:1098F00031F09CF9284638BD10B504462AF030FDF9
:1099000001462046FCF7F4FE014B2360204610BDC3
:10991000C8F50500006810B103681B681847704758
:10992000006D20B183688B4201D0C068F9E77047B1
:1099300010B50446FFF7F4FF28B103682146DB6841
:10994000BDE81040184710BD13B504460192FFF75B
:10995000E7FF38B10368019A9B68214602B0BDE871
:109960001040184702B010BD38B50446E36A2363BF
:10997000206B38B1C36821469847236B002BF5D084
:109980001B69F4E7E06A28B1056914212BF0CAFECF
:109990002846F8E7E062A06828B1056914212BF099
:1099A000C1FE2846F8E7A060606928B10569142166
:1099B0002BF0B8FE2846F8E76061206A28B10569F7
:1099C00014212BF0AFFE2846F8E7206238BD10B511
:1099D0000446FFF7C9FF012384F85430206D20B1FD
:1099E000036821461B699847F8E784F8540010BDC6
:1099F00008B5FFF7ECFF08BD07490022C0E90112D6
:109A000006490260C0E904120549C0E90712054988
:109A1000C0E90A12704700BF50F6050040F6050085
:109A200060F60500A8F6050038B5036A04460D4641
:109A30006BB1074A5AB16362606A40B1C368294694
:109A40009847636A0BB9236AF5E71B69F3E738BDEA
:109A5000CD6E02001FB50023CDE9013313780091CC
:109A60001B2B04D01D2B11D005B05DF804FB5388CF
:109A7000ADF8043001238DF806309368ADF8083056
:109A8000694653680393FFF7CFFFEDE75388ADF8BE
:109A900004300223EFE708B51378013B1C2B12D8E2
:109AA000DFE803F00F110F110F110F110F110F113C
:109AB0000F110F110F110F1111110F110F111211A1
:109AC0001200FFF741FF08BDFFF7C4FFFBE70000EE
:109AD000014B93F881007047D03E002007B508463F
:109AE00011461A469DF814300093D2B29DF81030FA
:109AF000C0B20BF04FF8002003B05DF804FB07B5CF
:109B0000084611461A469DF814300093D2B29DF8CB
:109B10001030C0B20BF082F8002003B05DF804FBF7
:109B200008B50846C0B2D1B20AF086FF002008BDD1
:109B300008B50846C0B2D1B20BF08FF8002008BDBE
:109B4000F0B589B001AD144602F1100C0F462A465B
:109B5000206861682E4603C6083464453546F7D14F
:109B6000596818680E9B05AC1B8803C4ADF81C30FF
:109B70009DF83C30002BF8B214BF022101210BF0FC
:109B800029F8002009B0F0BDF0B589B0002301AC80
:109B9000CDE90533ADF81C3002F1100713460E462F
:109BA000224618685968254603C50833BB422C462F
:109BB000F7D1F0B203210BF00DF8002009B0F0BD91
:109BC00008B508469DF8081059B9002B14BF0221AA
:109BD00001211346C0B20A4601210BF04FF80020C4
:109BE00008BD0321F5E708B5084600231A461946C3
:109BF000C0B20BF043F8002008BD0000F7B51446D2
:109C00001A464B1E022B0E462CD800EB81077D6DA9
:109C10009DB104F1100354F8041B45F8041B9C4249
:109C2000F9D1F0B2796D019008F080F901980899A6
:109C300008F086F9002003B0F0BD0B490192102016
:109C40002BF06EFD019A40B1034604F1100154F867
:109C5000045B43F8045B8C42F9D178650028E0D1BD
:109C60000720E8E70420E6E77826060038B54B1E13
:109C7000022B0D460FD800EB8104606D20B110213E
:109C80002BF050FD002363650022E8B2114608F076
:109C90004DF9002038BD0420FCE708B5084608212E
:109CA00005F0DAFF002008BD08B50846C0B2102153
:109CB0000AF0D2FE002008BD38B50446206B28B15A
:109CC000D0E900355B6898472563F7E738BD10B5E4
:109CD0000446FFF7F1FF204610BD90F8343070B510
:109CE000044603B119B1256B15B984F8345070BD21
:109CF000012384F83430D5E9003628469B6898471C
:109D00002B6828465B6898472663F0E708B5036B25
:109D100023B901630021FFF7E0FF08BD1A465B6825
:109D2000002BFBD15160F5E710B5002444600172AF
:109D3000094C11689288C0F80910A0F80D20046041
:109D400000F10F0203F1100153F8044B42F8044BE9
:109D50008B42F9D110BD00BFF0F9050073B505467F
:109D60000E4620200849CDE900322BF0D9FC0446EC
:109D700040B13146DDE90032FFF7D6FF21462846E3
:109D8000FFF7C4FF02B070BD7826060037B5044661
:109D9000CDE900320D46FFF79BFE40B12046DDE9DC
:109DA00000322946FFF7DAFF002003B030BD022061
:109DB000FBE708B513463AB1917D806AC943063383
:109DC00001F00101FFF7E2FF08BD08B5436B2BB1BD
:109DD000806A4FF00802FFF7A3FE08BD0920FCE7E8
:109DE00070B50546C068134602680C46166B0A46F5
:109DF00005F13801B04764352246103410685168C7
:109E00002B4603C30832A2421D46F7D170BDF0B500
:109E10000023142707FB03F2841894F89F6035464B
:109E2000F60708D4903245F00103104484F89F30BF
:109E3000C4F89010F0BD0133052BEBD10020F9E7F9
:109E400070B50022142400F1900504FB02F3C6183B
:109E500096F89F60F60705D5EE588E4202D19033F2
:109E6000184470BD0132052AEFD10020F9E710B582
:109E70001446FFF7E5FF40B1037C64F3410303742C
:109E80001CB9DBB264F34513037410BD70B505460D
:109E900000220C46FFF7EBFFE86803682146DB6809
:109EA000BDE8704001221847F7B506461446012266
:109EB0000D46FFF7DCFFF0680B4A03680A279E692E
:109EC0000523B4FBF2F101F1300C0DF803C0013BA6
:109ED00002FB1144591C92FBF7F2F2D16A46294663
:109EE000B04703B0F0BD00BFA086010070B50646C4
:109EF000154601220C46FFF7BAFFF06803682A46B0
:109F000021465B6ABDE87040184770B505460122DE
:109F10000C46FFF7ACFFE868036821461B6ABDE802
:109F20007040184770B5054601220C46FFF79FFFA9
:109F3000E86803682146DB69BDE870401847000007
:109F4000436B13B504462BB90B490C4840F21F5222
:109F50002AF036FF0192FFF773FF034648B1606BAA
:109F6000019A01684C6C5968234602B0BDE8104064
:109F7000184702B010BD00BF44F705008DF705007B
:109F8000436B70B5054616462BB91049104840F290
:109F900025622AF015FFFFF753FF0446A0B1686B56
:109FA000616803689B68984770B1237CC279C3F3EA
:109FB000400363F38612C271686B616803683246BE
:109FC0009B6ABDE87040184770BD00BF44F70500AC
:109FD0008DF7050037B5456B04462DB90C490D4882
:109FE00040F23B622AF0ECFECDE90023FFF728FFA8
:109FF000014650B1606B49680468DDE90023E46AFA
:10A00000A44603B0BDE83040604703B030BD00BF98
:10A0100044F705008DF70500436B70B505461646FD
:10A020002BB90C490C4840F249622AF0C9FEFFF7EF
:10A0300007FF044668B1686B616803689B689847CE
:10A0400038B1686B6168036832469B69BDE870404F
:10A05000184770BD44F705008DF7050037B5456B0F
:10A0600004462DB90C490D4840F25D622AF0A8FE65
:10A07000CDE90023FFF7E4FE014650B1606B49686B
:10A080000468DDE90023E469A44603B0BDE830407C
:10A09000604703B030BD00BF44F705008DF70500F1
:10A0A000436B70B5054616462BB90C490C4840F277
:10A0B0006B622AF085FEFFF7C3FE044668B1686B49
:10A0C000616803689B68984738B1686B616803688A
:10A0D00032461B6BBDE87040184770BD44F7050061
:10A0E0008DF70500436B2DE9F0410546884617467C
:10A0F0002BB91649164840F291622AF061FEFFF72B
:10A100009FFE0646F8B1686B716803689B689847C4
:10A110000446C0B1337CC279C3F3400363F34512F4
:10A12000C271686B716803683A461B6C9847E868AF
:10A13000E3790268546B41463A46A446C3F34013A0
:10A14000BDE8F0416047BDE8F08100BF44F705007D
:10A150008DF70500436B70B5064614464BB3FFF709
:10A160006FFE054608B9042070BD706B696803680E
:10A170009B6898470028F6D0EB7B13F0200211D0A3
:10A18000C3795A0603D4287C10F0020007D01B06BE
:10A1900003D5042323700020E6E70323FAE7022314
:10A1A0002370E1E713F0080001D00123F2E72070EB
:10A1B000DAE70920D8E7000037B51446426B0546B8
:10A1C0002AB90D490D4840F27F622AF0F9FD01934A
:10A1D000FFF736FE014668B1686B019B4968E2B241
:10A1E0000468646BB2FA82F25209A44603B0BDE877
:10A1F0003040604703B030BD44F705008DF70500DF
:10A2000070B50546164600220C46FFF730FEE8689A
:10A21000036866F07F022146DB68D2B29847214688
:10A220002846FFF70DFE68B1C37B03F01803182B17
:10A2300008D1E868036821465B69BDE870404FF0CB
:10A240000002184770BD436B37B504460D46A3B1F5
:10A25000FFF7F6FD98B1017C94F88A308DF8043050
:10A2600001F0010101A8FFF798FA9DF80420A06A07
:10A270002946FFF75DFC03B030BD0920FBE7042051
:10A28000F9E700007FB5436B04460D462BB9124930
:10A29000124840F202522AF093FDFFF7D1FD90B12F
:10A2A000636B1A68966B0E4A00920022CDE9012476
:10A2B0000C4A0392426869461846B047039B13B1A3
:10A2C0009B6868469847E06803680022DB68294677
:10A2D000984704B070BD00BF44F705008DF7050036
:10A2E000B39D02002CFA050070B50022142400F181
:10A2F000940504FB02F3C61896F89F60F60705D58F
:10A30000EE588E4202D19033184470BD0132052AB6
:10A31000EFD10020F9E70000436B73B50646144601
:10A320002BB91349134840F2C7322AF049FDFFF711
:10A33000DBFF054680B1706B696803689B689847CE
:10A3400050B14CB1C2792968B06AC2F380131206C9
:10A3500004D52246FFF718FC02B070BD019304F14A
:10A3600010030093224604F11203FFF7E9FBF3E721
:10A3700044F705008DF70500436B73B50546164697
:10A380002BB9104910484FF478722AF019FDFFF7E5
:10A39000ABFF044688B1686B616803689B689847A7
:10A3A000034650B1A86A21684EB1DB79DA09009200
:10A3B000C3F380133246FFF703FC02B070BDFFF712
:10A3C00012FCFAE744F705008DF7050073B5064661
:10A3D0001546FFF789FF044680B17DB1706B616857
:10A3E00003689B68984748B1C3792A69009221683D
:10A3F000B06AC3F340132A46FFF700FC02B070BDF9
:10A4000038B504460025C0E900550830FDF780F84E
:10A41000E5732574204638BD30B587B00C4601A8D9
:10A42000FFF7EEFF05AD01AA2346144603CCAC426C
:10A4300018605960224603F10803F6D122781A7099
:10A4400007B030BD436B70B504460E462BB90C49BE
:10A450000C4840F282422AF0B3FCFFF7F1FC0546BB
:10A4600060B13146A06AFFF701FC606B6968036860
:10A470001B6E984729462046FFF7CEFF70BD00BFF0
:10A4800044F705008DF7050008B5FFF79EFC08BDF1
:10A4900008B5FFF75FFE08BD10B50C4604F03AFAA8
:10A4A000E4B2012101FA04F4044214BF084600207A
:10A4B00010BD0020704710B5044604F021FA014693
:10A4C0002046FFF7DBF9204610BD03460A8B48699A
:10A4D00018609A801846704708B5034608685861A6
:10A4E0008A881A83084609F017FD002008BD2DE967
:10A4F000F0419DF818809DF824709DF81C509DF83F
:10A50000286000201C4607F0E7FF404608F006F8E8
:10A510003946002007F0F4FF3146002009F030FDF5
:10A52000089B2A46E1B2002007F016FF0020BDE894
:10A53000F08107B5009200220B461046032107F078
:10A540002BFF002003B05DF804FB08B5FFF7F1FF17
:10A5500008BD07B50B46009203210122002007F039
:10A560001BFF002003B05DF804FB08B5FFF7F1FF07
:10A5700008BD1FB581B100238DF80430ADF80C3053
:10A580008DF8083003AA02AB01A9012007F02CFFC7
:10A59000002005B05DF804FB8DF80C10012003A924
:10A5A00007F04EFFF4E71FB5134671B1827E8DF8B8
:10A5B0000F200021CDE900110DF10F02012009F05B
:10A5C00039FF002005B05DF804FB09F069FFF8E7EA
:10A5D0001FB5ADF80630BDF81830ADF80830BDF83D
:10A5E0001C30ADF80A300846BDF82030ADF80C300C
:10A5F00001A9BDF82430ADF80420C0B2ADF80E308A
:10A6000009F0A6F9002005B05DF804FB08B5D2B248
:10A61000C9B2032009F084F9002008BD70B5114EBD
:10A620003478BFF35B8F14F0010418D130462AF060
:10A63000B5FFA0B10C4D28461022214640F8044B2E
:10A6400030F0F4FA05F11400FCF762FF3046AC7705
:10A650002AF0C6FF054A064928462AF090FF02481C
:10A6600070BD00BFF8140020FC140020E0000020A2
:10A67000A1B9020008B50846114607F011FF0020F5
:10A6800008BD2DE9F74F16469DF838208DF80620B5
:10A6900016F0100F9DF854208DF807200D469DF8F8
:10A6A00034B09DF83C709DF844A09DF84C9006F0A5
:10A6B0000100C6F34002C6F38001C6F3C004C6F32E
:10A6C00000180FD029B914B9002852D0A2B904201B
:10A6D0004CE0002AFBD10028F9D0002C0CBF042448
:10A6E000012409E0002949D1002CF0D1002840D0F4
:10A6F000002A14BF0024052499B2BDF83020284652
:10A7000007F0EAFE9DF8060007F008FF5FFA8BF1FC
:10A71000284607F0F5FE5FFA8AF20021284609F084
:10A7200034FC9DF85C10284608F0A6FC9DF8073024
:10A730009DF850205FFA89F1284608F089FC9DF9C0
:10A740004820C6F38011284608F070FC4146284690
:10A7500008F04CFCC6F34011284608F057FC284688
:10A76000109BFAB2214607F0F7FD002003B0BDE8C8
:10A77000F08F002A0CBF03240224BDE710B1002A89
:10A78000ABD0A4E7002A14BF07240624B4E71FB502
:10A79000084619461446039008F07EFC079B039870
:10A7A000009300229DF81830E1B207F0F5FD00207B
:10A7B00004B010BD13B5059C01949DF810400094A1
:10A7C000FFF7E5FF02B010BD1FB508461946144655
:10A7D000039008F061FC079B0398009301229DF809
:10A7E0001830E1B207F0D8FD002004B010BD13B559
:10A7F000059C01949DF810400094FFF7E5FF02B01E
:10A8000010BDF7B50846089E1446194608B3500017
:10A8100001932AF071FF0199054600220A274FF69D
:10A82000FF73944209D936F812007843984228BF42
:10A83000184625F812000132F3E7099B2A46204604
:10A8400007F0D2FD15B128462AF06EFF002003B0B4
:10A85000F0BD104607F0F4FDF8E708B5104619B151
:10A8600008F09CFB002008BD08F0ACFBFAE704F000
:10A870005DB8BF207047FB20704708B504F05CF856
:10A88000032828BF0320C0B208BD08B507F0F6FDB5
:10A89000002008BD2DE9F04F89B004460B8891F8DF
:10A8A00004B091F808A091F8099001930D4602A810
:10A8B0000A31FEF7E3FF05F1170104A8B5F810808F
:10A8C0006F8AAE8AFEF7DAFF05F11D0106A8FEF7D2
:10A8D000D5FF019B02986360BDF80C30C4F80A00F4
:10A8E000E3810498BDF81430C4F816006383069819
:10A8F000BDF81C30E06101222046227084F801B0CE
:10A9000084F808A084F80990A4F810806782A682D1
:10A91000238409B0BDE8F08F70B5022304460371AB
:10A920000D46054B44F8083B06460FCD0FC42B6877
:10A930002360304670BD00BF04FA050008B5D0F8AA
:10A94000C000FFF7A9FD08BD73B5054616460C46C5
:10A9500019B1012906D0042401E080F8CC1020466A
:10A9600002B070BD537903F0C003C02BF3D10621B0
:10A970001046FEF7E0FE0028EDD0D5F8C040314685
:10A980006846FEF77BFF20466946FFF7A5FD0446B3
:10A990000028E4D1012385F8CC3031466846FEF723
:10A9A0006DFF0098BDF80430C5F8CD00A5F8D13092
:10A9B00031466846FEF762FF0098BDF80430C5F8DE
:10A9C000E500A5F8E930CAE770477FB505460C46B3
:10A9D0000026D5F8C80002A9CDE90266FFF75DF9A7
:10A9E00010B1002004B070BD9DF80D3002A903F035
:10A9F0003F0368468DF80D30FEF740FFBDF8043088
:10AA0000A38063790098206013F0C00FE1D1062184
:10AA10002046FEF790FE0028E4D1DAE730B4C9B250
:10AA200000689DF80850002918BF0B2130B1046858
:10AA30008DF80850246BA44630BC604730BC70478A
:10AA4000006810B428B10468646BA4465DF8044B38
:10AA500060475DF8044B704730B4C9B200689DF898
:10AA60000850002918BF0B2130B104688DF8085038
:10AA7000246BA44630BC604730BC7047F0B500681A
:10AA800087B09DF830709DF838609DF84050C8B18F
:10AA9000C9B204688DF8083000290D9B039318BFD4
:10AAA0000C21BDF83C3024698DF80410ADF8062067
:10AAB0008DF809708DF81060ADF812308DF81450D3
:10AAC00001A9A04707B0F0BD07B5006828B1036829
:10AAD000ADF804109B6901A9984703B05DF804FB29
:10AAE00013B5006840B1046824688DF800108DF833
:10AAF000012001936946A04702B010BD08B5FFF7D9
:10AB00001DFF08BD08B54FF00C01FFF7F7FF08BDAA
:10AB100090F8EB3073B50446B3B3FFF7F3FFD8B149
:10AB2000002504EBD50305F0070293F8B03113417B
:10AB3000DB07EEB20DD56846FCF7EAFC6946204615
:10AB4000FFF743FF00B3D4F8C0006A463146FFF771
:10AB500091FD01350F2DE4D16846FCF7D9FC69461B
:10AB60002046FFF732FF78B1D4F8C0006946FFF7FE
:10AB7000B3FC48B90323009884F8CC30BDF8043006
:10AB8000C4F8CD00A4F8D13002B070BD002202603C
:10AB9000704708B5FFF7D8FE08BD4079801101283D
:10ABA0000AD0032802D020B104207047002008708A
:10ABB000704701230B70704702230B700020704711
:10ABC0000346DBB213B5144608460022032B04D813
:10ABD000DFE803F002050218227000200EE001A950
:10ABE0008DF80420FFF7D9FF40B99DF80430012B00
:10ABF00006D0022B01D00BB90123237002B010BD87
:10AC00000323FAE701232370E7E7000073B5044646
:10AC100004F10A05FFF7BAFF0023A022E2802371A6
:10AC2000238104F129012A4602F8013B8A42FBD123
:10AC30004FF4007262854FF48042114684F8293047
:10AC4000009304F12C00002304F13406FCF72FFAE2
:10AC500004F153013246002302F8013B8A42FBD142
:10AC60004FF40072A4F8542094F8582084F853301C
:10AC700022F0030284F85820134A84F85630C4E9BD
:10AC80001823124AA267124AC4F88C20114A84F889
:10AC90005C30C4E92523104AE367C4E928230F4A3E
:10ACA000E366C4E91C33C4E92133C4E92B23C4F8A7
:10ACB0009030C4F880302846FEF7E8FD3046FEF7B5
:10ACC000E5FD204602B070BDB0F90500C595020053
:10ACD000BB950200C0F90500D0F90500E0F90500B8
:10ACE00013B590F85630013BDBB2044680F856307D
:10ACF0002BB990F8580063F3410084F85800009194
:10AD00008DF80420D4F8A430C4F8A830D4F8A800F2
:10AD100040B1C36869469847D4F8A830002BF1D0F9
:10AD20001B69F1E702B010BD73B50446D0F8B80056
:10AD30000D46164608B1FFF785FB206830B1036861
:10AD400000959B6A8DF8046069469847324629460B
:10AD50002046FFF7C5FF02B070BD08B54B781BB9A0
:10AD60000A7A4968FFF7E0FF08BD000038B50446DD
:10AD70000D4629B990F8583061F3000380F8583037
:10AD8000636E6BB1074A5AB1A366A06E40B1C36847
:10AD900029469847A36E0BB9636EF5E71B69F3E785
:10ADA00038BD00BFCD6E020070B5044686B0D4F841
:10ADB000B030C4F8B430D4F8B40040B1C368214610
:10ADC0009847D4F8B430002BF1D01B69F1E7D4F8E0
:10ADD000B00028B1056914212AF0A4FC2846F8E740
:10ADE00094F85830C4F8B00023F0030384F85830C6
:10ADF00084F8560084F85C0004F10A00FEF746FD72
:10AE000004F13400FEF742FD606E28B1056914219B
:10AE10002AF088FC2846F8E76066D4F8980028B144
:10AE2000056914212AF07EFC2846F8E7D4F8A430FE
:10AE3000C4F8980033B11D69184614212AF072FC39
:10AE40002B46F7E7CDE90233019301AD95E8070002
:10AE500004F16C06C4F8A43086E80700074AC4E988
:10AE60001E2395E8070004F1800686E80700044ADF
:10AE70002360C4E9232306B070BD00BFC59502005E
:10AE8000BB95020030B50D68C0F806508988418135
:10AE9000039C00F10D0182B11568C0F80D50928835
:10AEA0008A806BB11A6882619B88838364B123684E
:10AEB000C0F81E30A388438430BDC0F80D20EFE7F2
:10AEC000C0F80D308B80F1E7C0F80D408C80F3E7BF
:10AED00073B5069E01601D4600230271044643714E
:10AEE000821D00F10C0102F8013B9142FBD19DF85B
:10AEF0001C30237304F1130204F10D03002103F845
:10AF0000011B9A42FBD1099B636104F11E0204F10B
:10AF10001803002103F8011B9A42FBD104F124031A
:10AF2000002102F8011B9342FBD10B9B089A00936E
:10AF300031460A9B84F824502046FFF7A3FF621D88
:10AF400031462846FFF73CFE204602B070BD02465F
:10AF5000811D002302F8013B9142FBD1C380038194
:10AF6000C360038270472DE9F0410C4686B0054668
:10AF700001A89DF83C8017461E46FFF7E8FFA3880E
:10AF8000ADF808309DF8303020688DF80C309DF811
:10AF9000343001908DF80D3005AA0E9B04932146A4
:10AFA00040468DF80A708DF80B608DF81580FFF71C
:10AFB00007FED5F88C3001A905F18000984706B04E
:10AFC000BDE8F081B1F5486F28BF4FF4486106290C
:10AFD00038BF062101807047B1F5486F28BF4FF494
:10AFE00048610A2938BF0A21018070472DE9F043E2
:10AFF000066887B00C4616B34D783368D1F80490D4
:10B0000009895F6A002D684618BF0B25FFF7DAFF34
:10B01000A189B4F80A8001A8FFF7DEFFBDF800306F
:10B02000ADF81030BDF804308DF80850CDF80C9014
:10B03000ADF81280ADF8143002A93046B84707B019
:10B04000BDE8F083F0B505680C4687B01646194692
:10B05000FDB12B68E4B2002C68465F6A18BF0B2470
:10B06000FFF7B0FFBDF8341001A8FFF7B5FFBDF83A
:10B070000030ADF81030BDF83030ADF81230BDF80A
:10B0800004308DF808400396ADF8143002A9284624
:10B09000B84707B0F0BD00002DE9F04190F8BA21A3
:10B0A000C2F3800352078AB00C462FD5056835B32A
:10B0B0002B68D1F8048009891E6A04A8FFF782FF73
:10B0C000618905A8FFF77EFFE189A78906A8FFF738
:10B0D00083FFBDF81030ADF82030BDF81430ADF866
:10B0E0002230BDF81830CDF81C80ADF82470ADF8D2
:10B0F000263007A92846B0470AB0BDE8F0810A49C2
:10B100000A4800952B462A462AF0B8F8CDE90233C2
:10B11000CB8901938B8900934B890A89D0F8C000B1
:10B120004968FFF755FAE7E791F7050048011880ED
:10B130002DE9F04790F8BA418AB06407BDF848801D
:10B14000BDF84C900D461E460BD50024CDE90244B7
:10B15000CDE90089D0F8C000FFF73AFA0AB0BDE89F
:10B16000F0870468002CF9D02368114604A8D3F8AE
:10B1700020A0FFF727FF314605A8FFF723FF494628
:10B1800006A8FFF729FFBDF81030ADF82030BDF854
:10B190001430ADF82230BDF818300795ADF8248092
:10B1A000ADF8263007A92046D047D7E710B50446AA
:10B1B00000F5B870FCF710FF04F59870FCF720FF5D
:10B1C00004F1F000FCF71CFF04F1AC00FEF73CFBBF
:10B1D00004F1A000FEF71EFB04F19400FEF700FB53
:10B1E00004F16000FEF7E2FA204610BD38B50025F4
:10B1F0000446056005718560057300F10D0300F1DB
:10B200002D0203F8015B9342FBD1256384F834508F
:10B2100004F13500FDF71CF804F14500FDF718F8BE
:10B22000C4E916552566204638BD000010B50B4C04
:10B230002378BFF35B8FDB070ED420462AF0AEF9EC
:10B2400050B10748FFF7D2FF20462AF0C9F9054A56
:10B25000054903482AF093F9014810BD1C15002048
:10B2600020150020E0000020CF9C020008B5062237
:10B270002FF0A6FBB0FA80F0400908BD436B37B54C
:10B2800005462BB91A491B4840F2274229F098FD80
:10B29000FEF7D6FD044688B1686B616803689B6859
:10B2A000984758B195F88A301B0709D505F13E013A
:10B2B000FFF7DCFF237C60F30413237403B030BD7D
:10B2C000237CC3F3800262F30413237405F1740139
:10B2D0000191FFF7CBFF30B9019904F10800FFF7A6
:10B2E000C5FF0028EAD0237C43F01003E5E700BF48
:10B2F00044F705008DF70500F0B5436B85B00446B3
:10B300000E46002B54D0FEF79BFD0546002851D079
:10B3100094F88D301BB994F88A301A074CD5002266
:10B3200031462046FEF7A3FD31462046FFF7A6FF33
:10B3300094F88B202B7C94F88A70DB07C2F3C0034F
:10B3400043F002038DF8083095F90F3048BF47F0FD
:10B350000407002BB6BFEA7BC2F38001C2F3801161
:10B3600002A8FEF71AFA94F88E2094F88B300AB1EE
:10B370008DF808308DF80C3095F90F30E97B002BF3
:10B3800004DAC1F3801103A8FEF707FA2A7C9DF8BE
:10B3900008309DF80C108DF804108DF80030A06A6C
:10B3A0003B46C2F300123146FEF798FB05B0F0BDF4
:10B3B0000920FBE70420F9E70620F7E708B5FFF7C7
:10B3C0009BFF08BD2DE9F04105460E461746FEF7E6
:10B3D00037FD044640B3FBB2022B0DD1C37B23F0F3
:10B3E000380343F02003E373E86803683A463146C4
:10B3F0005B69BDE8F0411847DA1E012A05D8C37B16
:10B4000023F03A0343F02203EDE7002BECD1C37B9A
:10B4100003F01803082BE7D101682846FFF7CEFF99
:10B42000E37B43F01003E373BDE8F081F0B5436BB9
:10B4300085B005460E46002B56D0FEF701FD0446AA
:10B44000002853D031462846FFF718FF237C95F893
:10B450008A7095F88E10DA07A27B48BF47F0040780
:10B4600002F00F0302F0040200293AD095F88B1085
:10B470000B408DF808306AB194F90F30002BB5BF3E
:10B48000E17B95F88B20C1F38011C2F3800102A803
:10B49000FEF783F995F88B20A37B02EA13138DF84E
:10B4A0000C305B070BD594F90F30002BB6BFE27B55
:10B4B000C2F38001C2F3801103A8FEF76EF9227C6B
:10B4C0009DF808309DF80C108DF804108DF80030B0
:10B4D000A86A3B46C2F300123146FEF710FB05B0E6
:10B4E000F0BD03F00A03C4E70920F8E70420F6E7FB
:10B4F00008B5FFF79BFF08BD2DE9F04190F88D20BE
:10B500009DF818609DF81C7004460D462AB91B076B
:10B5100003D4FEF7B9FFBDE8F08129462046FEF7C7
:10B520008FFC0028F7D0037C06F00F066FF3410371
:10B5300046EA07168673037494F88C3033B1E068DA
:10B54000036829469B68BDE8F04118472946204614
:10B55000FFF7CEFFDFE70000436B2DE9F041044623
:10B560000E462BB91F49204840F2DE5229F028FC34
:10B57000FEF766FC054648B3606B696803689B6824
:10B580009847804610B304F174073946FFF76EFE02
:10B5900028B9394605F10800FFF768FE98B1012285
:10B5A00031462046FEF763FC3146A06A04F17A0278
:10B5B000FEF77AFB39464046FFF758FE30B10023CC
:10B5C0006367BB8002E02B7C9A0601D5BDE8F08161
:10B5D00043F020032B74E068036831469B6ABDE8A2
:10B5E000F041184744F705008DF7050030B587B0E6
:10B5F0008B7A8DF804300C46CB7A8DF805300546F1
:10B600000C310DF10600FEF739F9227A616803A8C2
:10B61000FBF76EFE637A8DF8143001A92846FFF718
:10B620007BF9284607B030BD2DE9F047046886B0A5
:10B6300088469DF838A017461E46CCB1236810995D
:10B640009DF83C20D3F814906D462846FBF750FE39
:10B6500095E8030006AB03E90300ADF808808DF818
:10B660000A708DF80B608DF80CA002A92046C8471F
:10B6700006B0BDE8F08700002DE9F04F04469BB00E
:10B680000D4600262B6828469B689847B0426ED925
:10B690002B68F2B2DB6829460DA8984794F8E03091
:10B6A0000DF1360763B194F8E430022B08D19DF810
:10B6B0003530012B04D13846FEF764F8002854D108
:10B6C000D4F800809DF835300593B8F1000F38D0DC
:10B6D0009DF83430042B9CBF264A12F803B0D8F8EA
:10B6E00000300DF1240A9B6806930DF12C099DF999
:10B6F00044300793504688BF4FF0000BFBF708FF1C
:10B70000DDE90F124846FBF7F3FD059B8DF8493044
:10B71000194B1493079B8DF8543099E803000023CC
:10B72000ADF85630FF238DF858301AAB03E903000B
:10B730008DF848B0069B1397CDF85CA012A940463F
:10B74000984705999DF834309DF840208DF80C10ED
:10B750000F990093CDE901211A1F534253413946F5
:10B760009DF944202046FFF7FEFB01368AE71BB017
:10B77000BDE8F08F80FA05000100FF7F2DE9F04F52
:10B7800095B00D4619469DF878308DF8173090F831
:10B79000E0301F9C9DF988809DF890A09DF89890BE
:10B7A000064617465FFA85FB73B190F8E430022B2A
:10B7B0000AD14AB11378012B06D108460491FDF74E
:10B7C000E1FF0499002844D196F8BA31D80746D44D
:10B7D0003668002E3DD033689B680493002F3BD021
:10B7E00097F800B006A8FEF749F804B12478259927
:10B7F00008AB18460AAFFEF741F827994A46384683
:10B80000FBF776FD06AA97E803009DF817300D9226
:10B810009DF880208DF838308DF83A2008AB9DF9DE
:10B8200084208DF83B201193BDF88C208DF830508A
:10B8300014AB03E903008DF831B0049B8DF8394057
:10B840008DF83C80ADF83E208DF840A00CA9304624
:10B85000984715B0BDE8F08F4FF0FF0BC2E71BF023
:10B86000100FF6D0EA0712D41BF0020F14BF022308
:10B8700003233A788DF80C20279A0093CDE90192A2
:10B88000CBF3C00342463046FFF76DFBE1E7CBF355
:10B890008003EEE738B50D461022002104462FF054
:10B8A000C5F9EB681BB15B68294620469847EB68F1
:10B8B000E360204638BD38B50D461022002104460D
:10B8C0002FF0B4F9EB681BB15B6829462046984716
:10B8D000EB68E360204638BDF0B5044685B00E46FF
:10B8E000FEF78AF81B4B63641B4B66630025043626
:10B8F000CDE900356F46194BA564C4E90F55C4E97D
:10B900001355A56384F85450304603930294FCF712
:10B910001BFD39463046FFF7BDFF3846FCF714FDE6
:10B920000F4A636B0294CDE9002503F114050D4A1B
:10B930000392BD4206D02846FCF70EFD3946284644
:10B94000FFF7B9FF3846FCF707FD636B20461C6024
:10B9500005B0F0BDB1950200979A02005CFA0500AF
:10B960003199020050FA0500C36810B504460BB1C6
:10B970009B689847204610BDC36810B504460BB1BC
:10B980009B689847204610BD0022027042707047A5
:10B99000C36810B504460BB19B689847204610BD9C
:10B9A00010B504460430FFF7F3FF204610BD000039
:10B9B0002DE9F04385B004460025884617461E460B
:10B9C000FFF724F90C9BC4F8C830C4E93076C4E909
:10B9D0002E5884F8CC5004F1CD00FBF799FD4FF4BC
:10B9E0000033C4F8E03004F1E508012384F8E430C2
:10B9F00084F8D35084F8D45084F8D550C4F8D85083
:10BA0000A4F8DC504046FBF783FD04F1F00340222C
:10BA10002946184684F8EB5084F8EC502FF006F9CC
:10BA2000FDF76AFF314EC4F8F06004F598734022C8
:10BA3000294618462FF0FAF8FDF75EFFC4F830618A
:10BA400004F5B870FDF758FF04F5D870FFF79CFFB8
:10BA500004F5D970FFF798FF04F5DA70FFF794FF4B
:10BA600004F5DB70FFF790FF04F5DC70FFF78CFF47
:10BA700094F8BA31D4F8C00023F0070384F8BA313F
:10BA8000FEF717FDD4F8C090194B029409F1040792
:10BA90006E46CDE90035B742164B039310D03846B9
:10BAA000FFF776FF1022294638462FF0BFF8039B98
:10BAB0001BB15B68314638469847039BC9F8103084
:10BAC0003046FFF765FF3046D4F8C010FEF7FDFCA6
:10BAD0000098B388C4F8E500A8F80430D4F8C03062
